:030000000209FCF6
:0C09FC00787FE4F6D8FD7581200208F633
:1009E8006C616D70206F6E0000006C616D70206F1F
:0409F800666600002F
:1008F600780D7C007D007BFF7A0979E87E007F0A0F
:100906001208D078177C007D007BFF7A0979F27E89
:10091600007F0A1208D07F38120A081209BE7F0E1D
:10092600120A081209BE7F01120A081209BE7F06C2
:10093600120A081209BE7F80120A081209BE7598AB
:1009460050758920758DFDD28E3098FD85990AE502
:100956000AB46F29D2A0E4F508F509740D2509F843
:10096600E6FF120A120509E50970020508C3940A92
:10097600E5086480948040E37F01120A08E50AB422
:1009860066C7C2A0E4F508F50974172509F8E6FF5D
:10099600120A120509E50970020508C3940AE5085A
:1009A6006480948040E37F01120A08AF0A120A129B
:0409B600C2988095CE
:0A0A08008F90C2B51209BAC2B722DE
:0A0A12008F90D2B51209BAC2B722C4
:0809BA00C2B6D2B77F0A7E002D
:1009C200E4FDFCE4FBFAC3EB9FEE6480F8EA64808A
:1009D2009850070BBB00010A80EC0DBD00010CBC56
:0509E20003E1BDE8DEA9
:0109E70022ED
:10080000E709F608DFFA8046E709F208DFFA803EDA
:1008100088828C83E709F0A3DFFA8032E309F608C7
:10082000DFFA8078E309F208DFFA807088828C832F
:10083000E309F0A3DFFA806489828A83E0A3F608E3
:10084000DFFA805889828A83E0A3F208DFFA804CBD
:1008500080D280FA80C680D4806980F28033801094
:1008600080A680EA809A80A880DA80E280CA8033FD
:1008700089828A83ECFAE493A3C8C582C8CCC58375
:10088000CCF0A3C8C582C8CCC583CCDFE9DEE78045
:100890000D89828A83E493A3F608DFF9ECFAA9F0C4
:1008A000EDFB2289828A83ECFAE0A3C8C582C8CC1A
:1008B000C583CCF0A3C8C582C8CCC583CCDFEADE33
:1008C000E880DB89828A83E493A3F208DFF980CC95
:1008D00088F0EF60010E4E60C388F0ED2402B4048E
:1008E0000050B9F582EB2402B4040050AF23234535
:0608F00082239008507302
:00000001FF
